{
  "transactions": [
    {
      "hash": "0x0e1029d9b1c53ef2841908e15e907d8d7ce38acfaff614b52ff67b1a967e6222",
      "transactionType": "CALL",
      "contractName": null,
      "contractAddress": "0xe272b3e28aae48e3ecd19fef076f7af6bc31c7e0",
      "function": "mintNft(string)",
      "arguments": [
        "ipfs://bafybeig37ioir76s7mg5oobetncojcm3c3hxasyd4rvid4jqhy4gkaheg4/?filename=0-PUG.json"
      ],
      "transaction": {
        "from": "0x5308af50b4618e14eaf34ac739cc4ea7aed05d08",
        "to": "0xe272b3e28aae48e3ecd19fef076f7af6bc31c7e0",
        "gas": "0x3d63d",
        "value": "0x0",
        "input": "0xda86f4a900000000000000000000000000000000000000000000000000000000000000200000000000000000000000000000000000000000000000000000000000000057697066733a2f2f62616679626569673337696f6972373673376d67356f6f6265746e636f6a636d3363336878617379643472766964346a71687934676b61686567342f3f66696c656e616d653d302d5055472e6a736f6e000000000000000000",
        "nonce": "0x1d",
        "chainId": "0xaa36a7"
      },
      "additionalContracts": [],
      "isFixedGasLimit": false
    }
  ],
  "receipts": [
    {
      "status": "0x1",
      "cumulativeGasUsed": "0xc68898",
      "logs": [
        {
          "address": "0xe272b3e28aae48e3ecd19fef076f7af6bc31c7e0",
          "topics": [
            "0xddf252ad1be2c89b69c2b068fc378daa952ba7f163c4a11628f55a4df523b3ef",
            "0x0000000000000000000000000000000000000000000000000000000000000000",
            "0x0000000000000000000000005308af50b4618e14eaf34ac739cc4ea7aed05d08",
            "0x0000000000000000000000000000000000000000000000000000000000000000"
          ],
          "data": "0x",
          "blockHash": "0x1b314c0ae07013235b36674fd70efe6d93931649a622c131d20500cc09ad10bf",
          "blockNumber": "0x6b72ca",
          "transactionHash": "0x0e1029d9b1c53ef2841908e15e907d8d7ce38acfaff614b52ff67b1a967e6222",
          "transactionIndex": "0x36",
          "logIndex": "0x4c",
          "removed": false
        }
      ],
      "logsBloom": "0x00000002000000000000000000000000800000000000000000000000000000000000000000000000040000000000000000000000000000000000000000000000000000000000000000000008000000000000000000100000000000000000000000000000020000000000000000000800004000000000000000000010000000000000000000000000000000000000000000000000000000000000000000000000000000000000000000000000000000000000000000000000000000000000000000000002000000020000000000000000000000000000000000000000000020000000000000000000000000000000000000000000000000000000000000000000",
      "type": "0x2",
      "transactionHash": "0x0e1029d9b1c53ef2841908e15e907d8d7ce38acfaff614b52ff67b1a967e6222",
      "transactionIndex": "0x36",
      "blockHash": "0x1b314c0ae07013235b36674fd70efe6d93931649a622c131d20500cc09ad10bf",
      "blockNumber": "0x6b72ca",
      "gasUsed": "0x2c720",
      "effectiveGasPrice": "0x33b471325",
      "from": "0x5308af50b4618e14eaf34ac739cc4ea7aed05d08",
      "to": "0xe272b3e28aae48e3ecd19fef076f7af6bc31c7e0",
      "contractAddress": null
    }
  ],
  "libraries": [],
  "pending": [],
  "returns": {},
  "timestamp": 1731144194,
  "chain": 11155111,
  "commit": "ffc5e92"
}